:100000000C942D000C9455010C947E010C94A701C6
:100010000C9429020C9429020C9429020C942902B4
:100020000C9429020C9429020C9429020C942902A4
:100030000C9429020C9429020C9429020C94290294
:100040000C9429020C9429020C9429020C94290284
:100050000C94290200600067800011241FBECFE5C8
:10006000D8E0DEBFCDBFE4E5F0E040E017C0B591D9
:10007000A59135912591059107FD0CC0959185912C
:10008000EF01F92FE82F05900D92A217B307D9F7CA
:10009000FE0104C01D92A217B307E1F7E935F4078A
:0E00A00031F70E9408020C941902F894FFCF69
:1000AE008130C9F120F0823009F469C07DC0613021
:1000BE0089F028F06230C9F0633011F177C085B74E
:1000CE00826085BF85B7816085BF8BB780648BBF2B
:1000DE0080E0089585B7826085BF85B78E7F85BF26
:1000EE008BB780648BBF80E0089585B78D7F85BF09
:1000FE0085B7816085BF8BB780648BBF80E0089524
:10010E0085B78D7F85BF85B78E7F85BF8BB78064A2
:10011E008BBF80E00895613089F028F06230C9F01D
:10012E00633011F145C085B7886085BF85B784609F
:10013E0085BF8BB780688BBF80E0089585B78860D8
:10014E0085BF85B78B7F85BF8BB780688BBF80E0FF
:10015E00089585B7877F85BF85B7846085BF8BB7C8
:10016E0080688BBF80E0089585B7877F85BF85B790
:10017E008B7F85BF8BB780688BBF80E00895662329
:10018E0019F0613049F016C084B7806484BF8BB714
:10019E0080628BBF80E0089584B78F7B84BF8BB75E
:1001AE0080628BBF80E0089582E0089582E008951A
:0801BE0082E0089582E008953B
:1001C600843008F067C0683008F066C0423008F036
:1001D60065C08130E9F030F0823081F1833009F476
:1001E60043C05EC081E090E0062E02C0880F991FD2
:1001F6000A94E2F780952BB32823842F90E002C05F
:10020600880F991F6A95E2F7822B8BBB80E00895D1
:1002160021E030E0062E02C0220F331F0A94E2F7D7
:10022600209588B32823842F90E002C0880F991F59
:100236006A95E2F7822B88BB80E0089521E030E0E2
:10024600062E02C0220F331F0A94E2F7209585B3CB
:100256002823842F90E002C0880F991F6A95E2F741
:10026600822B85BB80E0089521E030E0062E02C097
:10027600220F331F0A94E2F7209582B32823842F96
:1002860090E002C0880F991F6A95E2F7822B82BB25
:1002960080E0089582E0089582E0089582E008955E
:0402A60080E0089557
:1002AA001F920F920FB60F9211242F933F934F93E1
:1002BA005F936F937F938F939F93AF93BF93EF93C4
:1002CA00FF93E0916000F0916100309709F0099581
:1002DA00FF91EF91BF91AF919F918F917F916F9114
:1002EA005F914F913F912F910F900FBE0F901F90EA
:0202FA00189555
:1002FC001F920F920FB60F9211242F933F934F938F
:10030C005F936F937F938F939F93AF93BF93EF9371
:10031C00FF93E0916200F0916300309709F009952A
:10032C00FF91EF91BF91AF919F918F917F916F91C1
:10033C005F914F913F912F910F900FBE0F901F9097
:02034C00189502
:10034E001F920F920FB60F9211242F933F934F933C
:10035E005F936F937F938F939F93AF93BF93EF931F
:10036E00FF93E0916400F0916500309709F00995D4
:10037E00FF91EF91BF91AF919F918F917F916F916F
:10038E005F914F913F912F910F900FBE0F901F9045
:02039E001895B0
:1003A00080916600811108C041E060E00E94E30096
:1003B00081E080936600089540E060E080E00E9464
:0803C000E300109266000895AD
:1003C80087E58ABB8AE88BBB84E587BB85E788BB62
:1003D80085E984BB88E685BB89E681BB88E482BB66
:0403E80080E0089514
:1003EC00633060F4009761F0E62FF0E0EE0FFF1F32
:1003FC00E05AFF4F9183808380E0089581E0089557
:04040C0081E00895EE
:100410000E94E4010E94240261E080E00E945700F3
:100420008FB780688FBF60E080ED91E00E94F60199
:02043000FFCFFC
:10043200EC010E942E020E942D02CE010E942F0288
:06044200CE010E942B0216
:0A0448008FB780688FBF80E0089531
:040452000C94000006
:040456000E945500AB
:02045A00089503
:02045C00089501
:02045E000895FF
:00000001FF
