:100000000C942A000C943F000C943F000C943F0089
:100010000C943F000C943F000C943F000C943F0064
:100020000C943F000C943F000C943F000C943F0054
:100030000C943F000C943F000C943F000C943F0044
:100040000C943F000C943F000C943F000C943F0034
:100050000C943F0011241FBECFE5D8E0DEBFCDBF1A
:1000600010E0A0E6B0E0E0EDF8E002C005900D92EF
:10007000A63BB107D9F70E9499030C9466040C942F
:100080000000843028F4683018F4413009F480C04E
:10009000442309F488C080E008952AB381E090E009
:1000A00002C0880F991F6A95E2F7822B8ABB81E014
:1000B00008952AB381E090E002C0880F991F6A95E5
:1000C000E2F7809582238ABB81E00895442379F08A
:1000D000413009F053C027B381E090E002C0880F9F
:1000E000991F6A95E2F7822B87BB81E0089527B3B9
:1000F00081E090E002C0880F991F6A95E2F7809531
:10010000822387BB81E00895442371F04130C1F51B
:1001100024B381E090E002C0880F991F6A95E2F74E
:10012000822B84BB81E0089527B381E090E002C078
:10013000880F991F6A95E2F78095822387BB81E03B
:100140000895442371F04130E9F421B381E090E057
:1001500002C0880F991F6A95E2F7822B81BB81E06C
:10016000089521B381E090E002C0880F991F6A953D
:10017000E2F78095822381BB81E0089581E00895B4
:1001800081E0089581E0089581E0089581E0089577
:10019000813009F49BCF08F480CF823009F4B4CFCA
:1001A000833079F2F1CF813009F490CF08F481CF18
:1001B000823009F4A9CF833021F2E8CF683008F00B
:1001C00080C0813031F138F0823009F440C0833092
:1001D00009F45AC078C0442379F0413009F075C061
:1001E0002BB381E090E002C0880F991F6A95E2F777
:1001F000822B8BBB81E008952BB381E090E002C09D
:10020000880F991F6A95E2F7809582238BBB81E066
:100210000895442379F0413009F059C028B381E0B2
:1002200090E002C0880F991F6A95E2F7822B88BB85
:1002300081E0089528B381E090E002C0880F991F03
:100240006A95E2F78095822388BB81E00895442374
:1002500071F04130F1F525B381E090E002C0880FE4
:10026000991F6A95E2F7822B85BB81E0089525B33B
:1002700081E090E002C0880F991F6A95E2F78095AF
:10028000822385BB81E00895442371F0413019F544
:1002900022B381E090E002C0880F991F6A95E2F7CF
:1002A000822B82BB81E0089522B381E090E002C0FE
:1002B000880F991F6A95E2F78095822382BB81E0BF
:1002C000089580E0089580E0089580E0089580E03A
:1002D000089580E0089580E00895843008F054C0C7
:1002E000683008F053C0FA019081992309F450C096
:1002F0008130B9F028F0823029F18330A1F14AC071
:1003000089B390E002C0959587956A95E2F780FDE4
:1003100004C0FA01108281E0089581E0FA0180832F
:10032000089586B390E002C0959587956A95E2F7A7
:1003300080FD04C0FA01108281E0089581E0FA0195
:100340008083089583B390E002C0959587956A9560
:10035000E2F780FD04C0FA01108281E0089581E097
:10036000FA018083089580B390E002C09595879547
:100370006A95E2F780FD04C0FA01108281E00895D9
:1003800081E0FA018083089580E0089580E0089577
:1003900080E0089581E008956230A0F5813089F011
:1003A00028F08230C9F0833011F12EC0662331F07D
:1003B000613061F58FEF8ABB81E008951ABA81E060
:1003C0000895662331F0613019F58FEF87BB81E026
:1003D000089517BA81E00895662331F06130D1F4B1
:1003E0008FEF84BB81E0089514BA81E008956623FD
:1003F00031F0613089F48FEF81BB81E0089511BA4B
:1004000081E0089580E0089580E0089581E00895F6
:1004100081E0089581E0089581E00895813049F0F8
:1004200028F0823049F0833051F00CC06BBB81E082
:10043000089568BB81E0089565BB81E0089562BBC3
:1004400081E0089580E00895CF93C82F40E060E0F8
:1004500081E00E94DE0040E061E081E00E94DE0079
:100460006C2F83E00E940E0241E062E081E00E9476
:10047000DE0082E08A95F1F700C040E062E081E0B2
:100480000E94DE0080E0CF91089541E060E081E0CD
:100490000E94410041E061E081E00E94410041E0B2
:1004A00062E081E00E94410061E083E00E94CC01B3
:1004B00060E083E00E940E0240E060E081E00E9484
:1004C000DE0040E061E081E00E94DE0040E062E0AA
:1004D00081E00E94DE002FEB8AED90E02150804009
:1004E0009040E1F700C0000088E30E9424022AE661
:1004F0002A95F1F700C08FE00E9424028AE68A95CF
:10050000F1F700C081E00E9424028FE99FE001978B
:10051000F1F700C0000086E00E94240280E0089508
:10052000CF93C82F41E060E081E00E94DE0040E010
:1005300061E081E00E94DE006C2F83E00E940E02E9
:1005400041E062E081E00E94DE0082E08A95F1F7FE
:1005500000C040E062E081E00E94DE0080E0CF91D8
:100560000895683288F4813019F0823039F00EC075
:1005700080E8860F0E94240280E0089580EC860FB8
:100580000E94240280E0089581E0089581E00895AA
:100590000F931F93CF938C01C0E0FC0180818823CF
:1005A00049F00E949002CF5FF801EC0FF11D8081AD
:1005B0008111F7CF80E0CF911F910F91089581E0D5
:1005C0000E94240280E008953F924F925F926F92C2
:1005D0007F928F929F92AF92BF92CF92DF92EF92D3
:1005E000FF920F931F93CF93DF93CDB7DEB763973F
:1005F0000FB6F894DEBF0FBECDBF3C010F2EF0E763
:100600008F2EF0E09F2EF02DC12CD12C33243A9464
:10061000DB8ACA8AF40141904F0140E0642D80E0FA
:100620000E94DE000F2EF4E7EF2EF0E0FF2EF02DFB
:1006300000E010E05801F70151907F01AE014F5FDB
:100640005F4F652D80E00E946D018981811136C068
:100650008FE19EE40197F1F700C00000AE014F5F0B
:100660005F4F652D80E00E946D018981811126C058
:10067000AE014F5F5F4F652D80E00E946D01898163
:100680008823B1F380E1E0E6F0E0DE01129601900C
:100690000D928A95E1F7AA0CBB1CAA0CBB1CE1E0E9
:1006A000F0E0EC0FFD1FAE0EBF1EEA89FB89EA0DDC
:1006B000FB1D8181F301808380E016C00F5F1F4F17
:1006C0000430110509F0B6CF41E0642D80E00E94AE
:1006D000DE00F3013082FFEFCF1ADF0A84E0C81694
:1006E000D10409F095CF81E063960FB6F894DEBF90
:1006F0000FBECDBFDF91CF911F910F91FF90EF9073
:10070000DF90CF90BF90AF909F908F907F906F9031
:100710005F904F903F90089524EF31E006C00000B5
:100720000197E9F72150310919F084EF91E0F7CFF3
:100730000895CF93DF93CDB7DEB729970FB6F8941E
:10074000DEBF0FBECDBF41E060E080E00E9441000F
:1007500041E061E080E00E94410041E062E080E031
:100760000E94410041E063E080E00E94410040E0DF
:1007700064E080E00E94410040E065E080E00E948B
:10078000410040E066E080E00E94410040E067E018
:1007900080E00E94410041E060E080E00E94DE00D5
:1007A00041E061E080E00E94DE0041E062E080E044
:1007B0000E94DE0041E063E080E00E94DE0041E054
:1007C00064E080E00E94DE0041E065E080E00E949D
:1007D000DE0041E066E080E00E94DE0041E067E08C
:1007E00080E00E94DE000E94450284E394E39B8344
:1007F0008A8383E393E39D838C831E821F82188602
:10080000198600E07E018AE0E80EF11C01C010E0CC
:1008100060E070E081E090E00E94B10288E790E043
:100820000E94C8020E948C030E94DF02CE01019642
:100830000E94E40289818F3F09F445C08AE290E07A
:100840000E949002E6E0F0E0EC0FFD1FE10FF11DC9
:10085000898180831F5F37C091918D9198130BC060
:100860000E94DF0288E890E00E94C8020E948C0388
:100870000E94DF02CDCFEE15FF0571F7C9CF0E94B0
:10088000DF0289E990E00E94C8020E948C030E9466
:10089000DF020F5F033008F4BACF0E94DF028BEA59
:1008A00090E00E94C8020E948C030E94DF0200E0D8
:1008B00010E0AECF9E818A81981791F2FE013796A3
:1008C000DE011396C9CF1430D1F6F4CFF894FFCFE0
:1008D0003738392A343536403132333F30243D26DB
:1008E0000405060700010200456E7465725F5061E1
:1008F0007373776F72643A00547275652050617338
:1009000073776F7264203A290057726F6E672050B8
:10091000617373776F7264203A29004572726F7247
:06092000203A282000002F
:00000001FF
