:100000000C942D000C9478030C9478030C947803D2
:100010000C9478030C9478030C9478030C94780374
:100020000C9478030C9478030C944C020C941102F9
:100030000C9478030C9478030C9478030C94780354
:100040000C9478030C9478030C9478030C94780344
:100050000C9478030060006A800011241FBECFE575
:10006000D8E0DEBFCDBFE4E5F0E040E017C0B591D9
:10007000A59135912591059107FD0CC0959185912C
:10008000EF01F92FE82F05900D92A217B307D9F7CA
:10009000FE0104C01D92A217B307E1F7E935F4078A
:0E00A00031F70E9451030C945E03F894FFCFD9
:1000AE00843008F067C0683008F066C0423008F04F
:1000BE0065C08130E9F030F0823081F1833009F48F
:1000CE0043C05EC081E090E0062E02C0880F991FEB
:1000DE000A94E2F780952AB32823842F90E002C079
:1000EE00880F991F6A95E2F7822B8ABB80E00895EC
:1000FE0021E030E0062E02C0220F331F0A94E2F7F1
:10010E00209587B32823842F90E002C0880F991F73
:10011E006A95E2F7822B87BB80E0089521E030E0FC
:10012E00062E02C0220F331F0A94E2F7209584B3E5
:10013E002823842F90E002C0880F991F6A95E2F75A
:10014E00822B84BB80E0089521E030E0062E02C0B1
:10015E00220F331F0A94E2F7209581B32823842FB0
:10016E0090E002C0880F991F6A95E2F7822B81BB3F
:10017E0080E0089582E0089582E0089582E0089577
:04018E0080E0089570
:10019200843008F067C0683008F066C0423008F06A
:1001A20065C08130E9F030F0823081F1833009F4AA
:1001B20043C05EC081E090E0062E02C0880F991F06
:1001C2000A94E2F780952BB32823842F90E002C093
:1001D200880F991F6A95E2F7822B8BBB80E0089506
:1001E20021E030E0062E02C0220F331F0A94E2F70C
:1001F200209588B32823842F90E002C0880F991F8E
:100202006A95E2F7822B88BB80E0089521E030E016
:10021200062E02C0220F331F0A94E2F7209585B3FF
:100222002823842F90E002C0880F991F6A95E2F775
:10023200822B85BB80E0089521E030E0062E02C0CB
:10024200220F331F0A94E2F7209582B32823842FCA
:1002520090E002C0880F991F6A95E2F7822B82BB59
:1002620080E0089582E0089582E0089582E0089592
:0402720080E008958B
:1002760041E062E080E00E94570041E061E080E0FA
:100286000E94570041E060E080E00E94570061E074
:1002960083E00E94CF0160E083E00E942A0340E0F1
:1002A60062E080E00E94C90040E061E080E00E94D8
:1002B600C90040E060E080E00E94C9002FEB8AEDB3
:1002C60090E0215080409040E1F700C0000088E3B4
:1002D6000E94D0022AE62A95F1F700C08FE00E941C
:1002E600D0028AE68A95F1F700C081E00E94D0022A
:1002F6008FE99FE00197F1F700C0000086E00E94B9
:06030600D00280E0089522
:10030C001F93CF93DF93CDB7DEB72A970FB6F89430
:10031C00DEBF0FBECDBF6115710581059105C1F41E
:10032C0080E30E94F1022AC02AE030E040E050E075
:10033C000E94AE02E1E0F0E0EC0FFD1FE10FF11DB9
:10034C00605D6083622F732F842F952F1F5F01C018
:10035C0010E0611571058105910531F70DC0E12F94
:10036C00F0E0319781E090E08C0F9D1FE80FF91FB2
:10037C0080810E94F10211501111F1CF80E02A9678
:10038C000FB6F894DEBF0FBECDBFDF91CF911F919A
:02039C000895C2
:10039E006230A0F5813089F028F08230C9F08330C8
:1003AE0011F12EC0662331F0613061F58FEF8ABBFB
:1003BE0080E008951ABA80E00895662331F0613026
:1003CE0019F58FEF87BB80E0089517BA80E0089586
:1003DE00662331F06130D1F48FEF84BB80E0089555
:1003EE0014BA80E00895662331F0613089F48FEFFE
:1003FE0081BB80E0089511BA80E0089580E00895F1
:10040E0081E0089580E0089580E0089580E00895E9
:04041E0080E00895DD
:100422001F920F920FB60F9211242F933F934F9367
:100432005F936F937F938F939F93AF93BF93EF934A
:10044200FF93809162009091630001969093630004
:100452008093620083349F4069F480EC82BF1092E3
:10046200630010926200E0916600F091670030979D
:1004720009F00995FF91EF91BF91AF919F918F91F3
:100482007F916F915F914F913F912F910F900FBE8E
:060492000F901F90189569
:100498001F920F920FB60F9211242F933F934F93F1
:1004A8005F936F937F938F939F93AF93BF93EF93D4
:1004B800FF93809160009091610001969093610094
:1004C800809360008031974259F410926100109235
:1004D8006000E0916400F0916500309709F009959B
:1004E800FF91EF91BF91AF919F918F917F916F9104
:1004F8005F914F913F912F910F900FBE0F901F90DA
:02050800189544
:10050A0041E060E081E00E94C90041E061E081E0F1
:10051A000E945700609169006F5F6093690070E004
:10052A0080E090E00E94860180916800811109C0F4
:10053A0041E061E081E00E94C90081E080936800A7
:10054A00089540E061E081E00E94C90010926800CD
:02055A00089502
:10055C00A1E21A2EAA1BBB1BFD010DC0AA1FBB1FBB
:10056C00EE1FFF1FA217B307E407F50720F0A21B2D
:10057C00B30BE40BF50B661F771F881F991F1A949A
:10058C0069F760957095809590959B01AC01BD01C4
:04059C00CF010895EE
:1005A000CF93C82F40E062E080E00E94C90040E0A5
:1005B00061E080E00E94C9006C2F83E00E942A0362
:1005C00041E060E080E00E94C90082E08A95F1F796
:1005D00000C040E060E080E00E94C90080E0CF9170
:0205E00008957C
:1005E200CF93C82F41E062E080E00E94C90040E062
:1005F20061E080E00E94C9006C2F83E00E942A0320
:1006020041E060E080E00E94C90082E08A95F1F753
:1006120000C040E060E080E00E94C90080E0CF912D
:02062200089539
:1006240083B78F7B83BF83B7886083BF89B78260BA
:1006340089BF83E68CBF80EC82BF83B7846083BFAD
:1006440083B7826083BF83B7816083BF80E00895EE
:10065400813049F028F0823049F0833051F00CC0E9
:100664006BBB80E0089568BB80E0089565BB80E0C3
:0C067400089562BB80E0089581E00895C5
:100680008FE78ABB1BBA87E587BB85E788BB85E90F
:1006900084BB88E685BB89E681BB88E482BB80E0B9
:0206A0000895BB
:1006A2000E943B010E9440030E94730385E892E08E
:0A06B2000E9469030E941203FFCFAB
:1006BC00EC010E947D030E947C03CE010E947E030C
:0606CC00CE010E947A033A
:1006D200009731F0909365008093640080E0089564
:0406E20081E0089516
:0A06E6008FB780688FBF80E0089591
:0406F0000C94000066
:0406F4000E9455000B
:0206F800089563
:0206FA00089561
:0206FC0008955F
:00000001FF
