:100000000C942D000C94C7030C94C7030C94C703E5
:100010000C94C7030C94C7030C94C7030C94C70338
:100020000C94C7030C94C7030C94C7030C94C70328
:100030000C94C7030C94C7030C94C7030C94C70318
:100040000C94B4020C94C7030C94C7030C94C7031C
:100050000C94C70300600063800011241FBECFE52D
:10006000D8E0DEBFCDBFE4E5F0E040E017C0B591D9
:10007000A59135912591059107FD0CC0959185912C
:10008000EF01F92FE82F05900D92A217B307D9F7CA
:10009000FE0104C01D92A217B307E1F7E935F4078A
:0E00A00031F70E943B010C94BC03F894FFCF93
:1000AE00843008F067C0683008F066C0423008F04F
:1000BE0065C08130E9F030F0823081F1833009F48F
:1000CE0043C05EC081E090E0062E02C0880F991FEB
:1000DE000A94E2F780952AB32823842F90E002C079
:1000EE00880F991F6A95E2F7822B8ABB80E00895EC
:1000FE0021E030E0062E02C0220F331F0A94E2F7F1
:10010E00209587B32823842F90E002C0880F991F73
:10011E006A95E2F7822B87BB80E0089521E030E0FC
:10012E00062E02C0220F331F0A94E2F7209584B3E5
:10013E002823842F90E002C0880F991F6A95E2F75A
:10014E00822B84BB80E0089521E030E0062E02C0B1
:10015E00220F331F0A94E2F7209581B32823842FB0
:10016E0090E002C0880F991F6A95E2F7822B81BB3F
:10017E0080E0089582E0089582E0089582E0089577
:04018E0080E0089570
:10019200843008F067C0683008F066C0423008F06A
:1001A20065C08130E9F030F0823081F1833009F4AA
:1001B20043C05EC081E090E0062E02C0880F991F06
:1001C2000A94E2F780952BB32823842F90E002C093
:1001D200880F991F6A95E2F7822B8BBB80E0089506
:1001E20021E030E0062E02C0220F331F0A94E2F70C
:1001F200209588B32823842F90E002C0880F991F8E
:100202006A95E2F7822B88BB80E0089521E030E016
:10021200062E02C0220F331F0A94E2F7209585B3FF
:100222002823842F90E002C0880F991F6A95E2F775
:10023200822B85BB80E0089521E030E0062E02C0CB
:10024200220F331F0A94E2F7209582B32823842FCA
:1002520090E002C0880F991F6A95E2F7822B82BB59
:1002620080E0089582E0089582E0089582E0089592
:0402720080E008958B
:10027600CF93DF9300D0CDB7DEB70E9493030E94E1
:100286004C030E94A4011A82198262E081E00E9456
:10029600660386E50E942B0363E081E00E94660305
:1002A6008AE30E942B0380E20E942B0382E50E94D0
:1002B6002B038AE30E942B03BE016F5F7F4F80E012
:1002C6000E947A0289809A80A12CB12CA8E8B3E119
:1002D600A50194010E94B1036B017C010B2EBAE0CB
:1002E600F694E794D794C794BA95D1F7B02D60E009
:1002F60070E48CE990E00E94E80249015A0180E12D
:10030600881A87E2980AA108B10860E082E00E9494
:100316006603C701B601882799270E94EF0162E0AC
:1003260082E00E946603C501B4010E94EF019FE3CB
:100336002DE083E0915020408040E1F700C00000AE
:02034600BBCF2B
:1003480041E060E082E00E94570041E061E082E025
:100358000E94570041E062E082E00E94570061E09D
:1003680083E00E94380260E083E00E947D0340E061
:1003780060E082E00E94C90040E061E082E00E9403
:10038800C90040E062E082E00E94C9002FEB8AEDDC
:1003980090E0215080409040E1F700C0000088E3E1
:1003A8000E940A032AE62A95F1F700C08FE00E940E
:1003B8000A038AE68A95F1F700C081E00E940A03E1
:1003C8008FE99FE00197F1F700C0000086E00E94E6
:0603D8000A0380E0089515
:1003DE001F93CF93DF93CDB7DEB72A970FB6F8945E
:1003EE00DEBF0FBECDBF6115710581059105C1F44C
:1003FE0080E30E942B032AC02AE030E040E050E068
:10040E000E94E802E1E0F0E0EC0FFD1FE10FF11DAC
:10041E00605D6083622F732F842F952F1F5F01C045
:10042E0010E0611571058105910531F70DC0E12FC1
:10043E00F0E0319781E090E08C0F9D1FE80FF91FDF
:10044E0080810E942B0311501111F1CF80E02A966A
:10045E000FB6F894DEBF0FBECDBFDF91CF911F91C7
:02046E000895EF
:100470006230A0F5813089F028F08230C9F08330F5
:1004800011F12EC0662331F0613061F58FEF8ABB28
:1004900080E008951ABA80E00895662331F0613053
:1004A00019F58FEF87BB80E0089517BA80E00895B3
:1004B000662331F06130D1F48FEF84BB80E0089582
:1004C00014BA80E00895662331F0613089F48FEF2B
:1004D00081BB80E0089511BA80E0089580E008951E
:1004E00081E0089580E0089580E0089580E0089517
:0404F00080E008950B
:1004F400803280F56115710579F190916200911156
:100504002DC091E09093620097B1907E97B997B116
:10051400892B87B986B1806486B980E090E0DC01DC
:1005240003C00196A11DB11D349906C0803523EC8A
:100534009207A105B105A8F3349B12C086B180616E
:1005440086B91092620084B195B1FB0191838083D6
:1005540080E0089581E0089581E0089581E00895A0
:0405640081E0089595
:100568001F920F920FB60F9211242F933F934F9320
:100578005F936F937F938F939F93AF93BF93EF9303
:10058800FF938091600090916100892B61F0109237
:10059800620086B1877F86B984B195B1E091600029
:1005A800F09161000995FF91EF91BF91AF919F91F3
:1005B8008F917F916F915F914F913F912F910F9004
:0805C8000FBE0F901F90189563
:1005D000A1E21A2EAA1BBB1BFD010DC0AA1FBB1F47
:1005E000EE1FFF1FA217B307E407F50720F0A21BB9
:1005F000B30BE40BF50B661F771F881F991F1A9426
:1006000069F760957095809590959B01AC01BD014F
:04061000CF01089579
:10061400CF93C82F40E060E082E00E94C90040E030
:1006240061E082E00E94C9006C2F83E00E947D0398
:1006340041E062E082E00E94C90082E08A95F1F71D
:1006440000C040E062E082E00E94C90080E0CF91F7
:02065400089507
:10065600CF93C82F41E060E082E00E94C90040E0ED
:1006660061E082E00E94C9006C2F83E00E947D0356
:1006760041E062E082E00E94C90082E08A95F1F7DB
:1006860000C040E062E082E00E94C90080E0CF91B5
:020696000895C5
:1006980087B18F7787B987B1806487B987B18F7D34
:1006A80087B986B18F7D86B986B1846086B986B1EF
:1006B800826086B986B18E7F86B986B1806886B930
:0406C80080E0089531
:1006CC00683288F4813019F0823039F00EC080E83D
:1006DC00860F0E940A0380E0089580EC860F0E942A
:0E06EC000A0380E0089581E0089581E00895FA
:1006FA00813049F028F0823049F0833051F00CC043
:10070A006BBB80E0089568BB80E0089565BB80E01C
:0C071A00089562BB80E0089581E008951E
:100726001ABA8FEF8BBB97E597BB90E798BB97E913
:0E07360094BB98E695BB81BB12BA80E0089593
:10074400A29FB001B39FC001A39F700D811D11240E
:0E075400911DB29F700D811D1124911D0895FD
:100762000E94A203A59F900DB49F900DA49F800D9F
:06077200911D1124089501
:10077800EC010E94CC030E94CB03CE010E94CD0362
:06078800CE010E94C9032E
:04078E000C940000C7
:040792000E9455006C
:020796000895C4
:020798000895C2
:02079A000895C0
:00000001FF
