:100000000C942A000C941C010C941C010C941C01EF
:100010000C941C010C941C010C941C010C941C01EC
:100020000C941C010C941C010C941C010C941C01DC
:100030000C941C010C941C010C941C010C941C01CC
:100040000C941C010C941C010C941C010C941C01BC
:100050000C941C0111241FBECFE5D8E0DEBFCDBF3C
:0C0060000E94A8000C941101F894FFCF3E
:10006C00843008F067C0683008F066C0423008F091
:10007C0065C08130E9F030F0823081F1833009F4D1
:10008C0043C05EC081E090E0062E02C0880F991F2D
:10009C000A94E2F780952BB32823842F90E002C0BA
:1000AC00880F991F6A95E2F7822B8BBB80E008952D
:1000BC0021E030E0062E02C0220F331F0A94E2F733
:1000CC00209588B32823842F90E002C0880F991FB5
:1000DC006A95E2F7822B88BB80E0089521E030E03E
:1000EC00062E02C0220F331F0A94E2F7209585B327
:1000FC002823842F90E002C0880F991F6A95E2F79D
:10010C00822B85BB80E0089521E030E0062E02C0F2
:10011C00220F331F0A94E2F7209582B32823842FF1
:10012C0090E002C0880F991F6A95E2F7822B82BB80
:10013C0080E0089582E0089582E0089582E00895B9
:04014C0080E00895B2
:10015000CF93DF930F92CDB7DEB70E94F6000E94D7
:10016000E000CE0101960E9406018981813631F4BA
:1001700041E060E080E00E943600F3CF823631F447
:1001800041E061E080E00E943600EBCF893731F436
:1001900041E062E080E00E943600E3CF833709F758
:1001A00040E060E080E00E94360040E061E080E0F6
:1001B0000E94360040E062E080E00E943600D1CF2D
:1001C0008BB18D7F8BB98BB18E7F8BB98AB18860F3
:1001D0008AB98AB180618AB98AB18B7F8AB98EE87F
:0C01E00080BD87E689B910BC80E008955E
:1001EC008FEF8ABB1BBA8FE587BB81E788BB85E99C
:1001FC0084BB88E685BB8EEF81BB12BA80E0089584
:10020C00009739F05F9BFECF2CB1FC01208380E07E
:06021C00089581E0089541
:10022200EC010E9421010E942001CE010E942201C4
:06023200CE010E941E0136
:040238000C94000022
:04023C000E943400E8
:0202400008951F
:0202420008951D
:0202440008951B
:00000001FF
