:100000000C942A000C947C010C947C010C947C01CF
:100010000C947C010C947C010C947C010C947C016C
:100020000C947C010C947C010C947C010C947C015C
:100030000C947C010C947C010C947C010C947C014C
:100040000C947C010C947C010C947C010C947C013C
:100050000C947C0111241FBECFE5D8E0DEBFCDBFDC
:0C0060000E94AB000C947101F894FFCFDB
:05006C00616263610008
:10007200843008F067C0683008F066C0423008F08B
:1000820065C08130E9F030F0823081F1833009F4CB
:1000920043C05EC081E090E0062E02C0880F991F27
:1000A2000A94E2F780952BB32823842F90E002C0B4
:1000B200880F991F6A95E2F7822B8BBB80E0089527
:1000C20021E030E0062E02C0220F331F0A94E2F72D
:1000D200209588B32823842F90E002C0880F991FAF
:1000E2006A95E2F7822B88BB80E0089521E030E038
:1000F200062E02C0220F331F0A94E2F7209585B321
:100102002823842F90E002C0880F991F6A95E2F796
:10011200822B85BB80E0089521E030E0062E02C0EC
:10012200220F331F0A94E2F7209582B32823842FEB
:1001320090E002C0880F991F6A95E2F7822B82BB7A
:1001420080E0089582E0089582E0089582E00895B3
:0401520080E00895AC
:10015600CF93DF93CDB7DEB7C556D1090FB6F89466
:10016600DEBF0FBECDBF0E9456010E944001CE01E8
:1001760001960E9466018981813631F441E060E092
:1001860080E00E943900F3CF823631F441E061E02D
:1001960080E00E943900EBCF893731F441E062E01C
:1001A60080E00E943900E3CF8736A9F48E010E5F06
:1001B6001F4FC8010E942101B80180E82CE630E0FB
:1001C60040E00E940001892B91F241E062E083E069
:1001D6000E943900CCCF833751F640E060E080E0E2
:1001E6000E94390040E061E080E00E94390040E072
:0A01F60062E080E00E943900BACFF9
:10020000CF92DF92EF926B01E82EF6018491E7FC2A
:100210008081F901549147FD508185130BC08823DB
:1002200041F08FEFC81AD80AE80A2F5F3F4F4F4FAF
:10023000ECCF582F90E0851B9109EF90DF90CF9085
:0202400008951F
:10024200AC01892BD1F05F9BFECF8CB15D9BFECFC1
:100252008CB920E05F9BFECF9CB15D9BFECF9CB929
:10026200891305C0FA01E20FF11D108206C0FA01DE
:0E027200E20FF11D90832E5FEDCF80E0089526
:100280008BB18D7F8BB98BB18E7F8BB98AB1886032
:100290008AB98AB180618AB98AB18B7F8AB98EE8BE
:0C02A00080BD87E689B910BC80E008959D
:1002AC008FEF8ABB1BBA8FE587BB81E788BB85E9DB
:1002BC0084BB88E685BB8EEF81BB12BA80E00895C3
:1002CC00009739F05F9BFECF2CB1FC01208380E0BE
:0602DC00089581E0089581
:1002E200EC010E9481010E948001CE010E948201E4
:0602F200CE010E947E0116
:0402F8000C94000062
:0402FC000E94340028
:0203000008955E
:0203020008955C
:0203040008955A
:00000001FF
