:100000000C942E000C9481030C9481030C948103B6
:100010000C9481030C9481030C9481030C94810350
:100020000C9481030C9481030C9481030C94810340
:100030000C9481030C9481030C9481030C94810330
:100040000C9481030C9481030C9481030C94810320
:100050000C948103006000700007100011241FBE83
:10006000CFE5D8E0DEBFCDBFE4E5F0E040E017C06B
:10007000B591A59135912591059107FD0CC09591FC
:100080008591EF01F92FE82F05900D92A217B30784
:10009000D9F7FE0104C01D92A217B307E1F7EB35B3
:1000A000F40731F70E9462030C947603F894FFCFB3
:0400B0000405060736
:0400B4000001020045
:1000B8008F929F92AF92BF92CF92DF92EF92FF9270
:1000C8000F931F93CF93DF93CDB7DEB761970FB62A
:1000D800F894DEBF0FBECDBF6C01912C6FC0E92C28
:1000E800F12CC7010F2C000CAA0B80559F4FAF4F66
:1000F800FC018490A7FD808040E0682D82E00E948A
:100108006C01B12C4EC00B2D10E0C801012E000C63
:10011800AA0B8C549F4FAF4FFC01A490A7FDA08061
:10012800AE014F5F5F4F6A2D82E00E9430028981E5
:10013800811136C08FE19EE40197F1F700C00000FD
:10014800AE014F5F5F4F6A2D82E00E9430028981C5
:10015800811126C007C0AE014F5F5F4F6A2D82E054
:100168000E94300289818823B1F380E1E0E6F0E063
:10017800DE01129601900D928A95E1F7000F111F8A
:10018800000F111FE1E0F0E0EC0FFD1F0E0F1F1F25
:10019800F801EE0DFF1D8181F601808380E013C018
:1001A800B394F3E0FB1508F0AECF41E0682D82E090
:1001B8000E946C018FEFF60180839394F3E0F915A8
:1001C80008F08DCF81E061960FB6F894DEBF0FBEC0
:1001D800CDBFDF91CF911F910F91FF90EF90DF90EE
:0C01E800CF90BF90AF909F908F90089533
:1001F400843008F067C0683008F066C0423008F008
:1002040065C08130E9F030F0823081F1833009F447
:1002140043C05EC081E090E0062E02C0880F991FA3
:100224000A94E2F780952AB32823842F90E002C031
:10023400880F991F6A95E2F7822B8ABB80E00895A4
:1002440021E030E0062E02C0220F331F0A94E2F7A9
:10025400209587B32823842F90E002C0880F991F2C
:100264006A95E2F7822B87BB80E0089521E030E0B5
:10027400062E02C0220F331F0A94E2F7209584B39E
:100284002823842F90E002C0880F991F6A95E2F713
:10029400822B84BB80E0089521E030E0062E02C06A
:1002A400220F331F0A94E2F7209581B32823842F69
:1002B40090E002C0880F991F6A95E2F7822B81BBF8
:1002C40080E0089582E0089582E0089582E0089530
:0402D40080E0089529
:1002D800843008F067C0683008F066C0423008F023
:1002E80065C08130E9F030F0823081F1833009F463
:1002F80043C05EC081E090E0062E02C0880F991FBF
:100308000A94E2F780952BB32823842F90E002C04B
:10031800880F991F6A95E2F7822B8BBB80E00895BE
:1003280021E030E0062E02C0220F331F0A94E2F7C4
:10033800209588B32823842F90E002C0880F991F46
:100348006A95E2F7822B88BB80E0089521E030E0CF
:10035800062E02C0220F331F0A94E2F7209585B3B8
:100368002823842F90E002C0880F991F6A95E2F72E
:10037800822B85BB80E0089521E030E0062E02C084
:10038800220F331F0A94E2F7209582B32823842F83
:1003980090E002C0880F991F6A95E2F7822B82BB12
:1003A80080E0089582E0089582E0089582E008954B
:0403B80080E0089544
:1003BC0041E064E082E00E94FA0041E065E082E006
:1003CC000E94FA0041E066E082E00E94FA0041E0FF
:1003DC0067E082E00E94FA0041E064E082E00E9463
:1003EC006C0141E065E082E00E946C0141E066E056
:1003FC0082E00E946C0141E067E082E00E946C01A7
:10040C0041E060E082E00E94FA0041E061E082E0BD
:10041C000E94FA0041E062E082E00E94FA0041E0B2
:10042C0063E082E00E94FA0041E060E082E00E941A
:10043C006C0141E061E082E00E946C0141E062E00D
:10044C0082E00E946C0141E063E082E00E946C015A
:04045C0080E008959F
:100460004115510509F442C0843008F041C068309C
:1004700008F040C0FA0190819230F0F5813091F09F
:1004800028F08230D9F0833029F138C089B390E068
:1004900002C0959587956A95E2F78170FA0180838D
:1004A00082E0089586B390E002C0959587956A959D
:1004B000E2F78170FA01808382E0089583B390E0CF
:1004C00002C0959587956A95E2F78170FA0180835D
:1004D00082E0089580B390E002C0959587956A9573
:1004E000E2F78170FA01808382E0089583E0089545
:1004F00080E0089580E0089580E0089582E0089506
:1005000041E062E081E00E94FA0041E063E081E0C6
:100510000E94FA0041E064E081E00E94FA0061E09C
:1005200083E00E94C80260E083E00E944C0340E048
:1005300062E081E00E946C0140E063E081E00E94A3
:100540006C0140E064E081E00E946C018FE59AEE6E
:100550000197F1F700C0000088E30E940A039AE6C1
:100560009A95F1F700C08FE00E940A038AE68A9507
:10057000F1F700C081E00E940A038FE99FE0019734
:10058000F1F700C0000086E00E940A0380E00895B1
:100590006230A0F5813089F028F08230C9F08330D4
:1005A00011F12EC0662331F0613061F58FEF8ABB07
:1005B00080E008951ABA80E00895662331F0613032
:1005C00019F58FEF87BB80E0089517BA80E0089592
:1005D000662331F06130D1F48FEF84BB80E0089561
:1005E00014BA80E00895662331F0613089F48FEF0A
:1005F00081BB80E0089511BA80E0089580E00895FD
:1006000081E0089580E0089580E0089580E00895F5
:0406100080E00895E9
:10061400CF93C82F40E062E081E00E946C0140E08B
:1006240063E081E00E946C016C2F83E00E944C0324
:1006340041E064E081E00E946C0182E08A95F1F778
:1006440000C040E064E081E00E946C0180E0CF9152
:02065400089507
:10065600CF93C82F41E062E081E00E946C0140E048
:1006660063E081E00E946C016C2F83E00E944C03E2
:1006760041E064E081E00E946C0182E08A95F1F736
:1006860000C040E064E081E00E946C0180E0CF9110
:020696000895C5
:10069800813049F028F0823049F0833051F00CC0A5
:1006A8006BBB80E0089568BB80E0089565BB80E07F
:0C06B800089562BB80E0089581E0089581
:1006C400CF93DF930F92CDB7DEB70E94DE010E9475
:1006D4008002CE0101960E945C0089818F3FC9F39C
:0806E4008AE20E942B03F5CF0E
:1006EC00EC010E9486030E948503CE010E948703C1
:0606FC00CE010E94830301
:040702000C94000053
:040706000E945600F7
:02070A00089550
:02070C0008954E
:02070E0008954C
:100710003738392A343536403132333F30243D269C
:00000001FF
