:100000000C942D000C9416030C9416030C941603F8
:100010000C9416030C9416030C9416030C941603FC
:100020000C9416030C9416030C9403020C94C80150
:100030000C9416030C9416030C9416030C941603DC
:100040000C943C020C9416030C9416030C941603A7
:100050000C9416030060006B800011241FBECFE5D6
:10006000D8E0DEBFCDBFE4E5F0E040E017C0B591D9
:10007000A59135912591059107FD0CC0959185912C
:10008000EF01F92FE82F05900D92A217B307D9F7CA
:10009000FE0104C01D92A217B307E1F7E935F4078A
:0E00A00031F70E9470020C940B03F894FFCF0E
:1000AE00843008F067C0683008F066C0423008F04F
:1000BE0065C08130E9F030F0823081F1833009F48F
:1000CE0043C05EC081E090E0062E02C0880F991FEB
:1000DE000A94E2F780952AB32823842F90E002C079
:1000EE00880F991F6A95E2F7822B8ABB80E00895EC
:1000FE0021E030E0062E02C0220F331F0A94E2F7F1
:10010E00209587B32823842F90E002C0880F991F73
:10011E006A95E2F7822B87BB80E0089521E030E0FC
:10012E00062E02C0220F331F0A94E2F7209584B3E5
:10013E002823842F90E002C0880F991F6A95E2F75A
:10014E00822B84BB80E0089521E030E0062E02C0B1
:10015E00220F331F0A94E2F7209581B32823842FB0
:10016E0090E002C0880F991F6A95E2F7822B81BB3F
:10017E0080E0089582E0089582E0089582E0089577
:04018E0080E0089570
:10019200843008F067C0683008F066C0423008F06A
:1001A20065C08130E9F030F0823081F1833009F4AA
:1001B20043C05EC081E090E0062E02C0880F991F06
:1001C2000A94E2F780952BB32823842F90E002C093
:1001D200880F991F6A95E2F7822B8BBB80E0089506
:1001E20021E030E0062E02C0220F331F0A94E2F70C
:1001F200209588B32823842F90E002C0880F991F8E
:100202006A95E2F7822B88BB80E0089521E030E016
:10021200062E02C0220F331F0A94E2F7209585B3FF
:100222002823842F90E002C0880F991F6A95E2F775
:10023200822B85BB80E0089521E030E0062E02C0CB
:10024200220F331F0A94E2F7209582B32823842FCA
:1002520090E002C0880F991F6A95E2F7822B82BB59
:1002620080E0089582E0089582E0089582E0089592
:0402720080E008958B
:1002760041E064E080E00E94570041E065E080E0F4
:100286000E94570041E066E080E00E94570061E06E
:1002960081E00E94860160E081E00E94EA0240E07F
:1002A60064E080E00E94C90040E065E080E00E94D2
:1002B600C90040E066E080E00E94C9002FEB8AEDAD
:1002C60090E0215080409040E1F700C0000088E3B4
:1002D6000E9491022AE62A95F1F700C08FE00E945B
:1002E60091028AE68A95F1F700C081E00E949102A8
:1002F6008FE99FE00197F1F700C0000086E00E94B9
:06030600910280E0089561
:10030C006230A0F5813089F028F08230C9F083305A
:10031C0011F12EC0662331F0613061F58FEF8ABB8D
:10032C0080E008951ABA80E00895662331F06130B8
:10033C0019F58FEF87BB80E0089517BA80E0089518
:10034C00662331F06130D1F48FEF84BB80E00895E7
:10035C0014BA80E00895662331F0613089F48FEF90
:10036C0081BB80E0089511BA80E0089580E0089583
:10037C0081E0089580E0089580E0089580E008957C
:04038C0080E0089570
:100390001F920F920FB60F9211242F933F934F93FA
:1003A0005F936F937F938F939F93AF93BF93EF93DD
:1003B000FF93809164009091650001969093650091
:1003C0008093640083349F4069F480EC82BF109274
:1003D000650010926400E0916800F0916900309728
:1003E00009F00995FF91EF91BF91AF919F918F9186
:1003F0007F916F915F914F913F912F910F900FBE21
:060400000F901F901895FB
:100406001F920F920FB60F9211242F933F934F9383
:100416005F936F937F938F939F93AF93BF93EF9366
:10042600FF93809162009091630001969093630020
:10043600809362008031974259F4109263001092C3
:100446006200E0916600F0916700309709F0099527
:10045600FF91EF91BF91AF919F918F917F916F9196
:100466005F914F913F912F910F900FBE0F901F906C
:020476001895D7
:100478001F920F920FB60F9211242F933F934F9311
:100488005F936F937F938F939F93AF93BF93EF93F4
:10049800FF938091600090916100892B61F0109228
:1004A8006A0086B1877F86B984B195B1E091600012
:1004B800F09161000995FF91EF91BF91AF919F91E4
:1004C8008F917F916F915F914F913F912F910F90F5
:0804D8000FBE0F901F90189554
:1004E0000E943B0160E081E00E94D30286E50E9409
:1004F000B20261E081E00E94D3028AE30E94B2026C
:100500002FEF83ED90E3215080409040E1F700C051
:1005100000000E94000386E50E94B20280E090E0A5
:0205200008953C
:10052200CF93C82F40E064E080E00E94C90040E021
:1005320065E080E00E94C9006C2F81E00E94EA021F
:1005420041E066E080E00E94C90082E08A95F1F70E
:1005520000C040E066E080E00E94C90080E0CF91E8
:020562000895FA
:10056400CF93C82F41E064E080E00E94C90040E0DE
:1005740065E080E00E94C9006C2F81E00E94EA02DD
:1005840041E066E080E00E94C90082E08A95F1F7CC
:1005940000C040E066E080E00E94C90080E0CF91A6
:0205A4000895B8
:1005A600683288F4813019F0823039F00EC080E864
:1005B600860F0E94910280E0089580EC860F0E94CB
:0E05C600910280E0089581E0089581E008959B
:1005D400813049F028F0823049F0833051F00CC06A
:1005E4006BBB80E0089568BB80E0089565BB80E044
:0C05F400089562BB80E0089581E0089546
:1006000081E00E9491028FEC97E00197F1F700C022
:06061000000080E00895E7
:10061600EC010E941B030E941A03CE010E941C03D8
:06062600CE010E94180342
:04062C000C9400002A
:040630000E945500CF
:02063400089527
:02063600089525
:02063800089523
:00000001FF
