:100000000C942D000C941A020C941A020C941A02EF
:100010000C941A020C941A020C941A020C941A02F0
:100020000C941A020C941A020C94CC000C945700F5
:100030000C941A020C941A020C941A020C941A02D0
:100040000C9405010C941A020C941A020C941A02D6
:100050000C941A020060006B800011241FBECFE5D3
:10006000D8E0DEBFCDBFE4E5F0E040E017C0B591D9
:10007000A59135912591059107FD0CC0959185912C
:10008000EF01F92FE82F05900D92A217B307D9F7CA
:10009000FE0104C01D92A217B307E1F7E935F4078A
:0E00A00031F70E9439010C940C02F894FFCF46
:1000AE001F920F920FB60F9211242F933F934F93DF
:1000BE005F936F937F938F939F93AF93BF93EF93C2
:1000CE00FF93809164009091650001969093650076
:1000DE008093640083349F4069F480EC82BF109259
:1000EE00650010926400E0916800F091690030970D
:1000FE0009F00995FF91EF91BF91AF919F918F916B
:10010E007F916F915F914F913F912F910F900FBE05
:06011E000F901F901895E0
:10012400803280F56115710579F190916A00911121
:100134002DC091E090936A0097B1907E97B997B1E2
:10014400892B87B986B1806486B980E090E0DC01B0
:1001540003C00196A11DB11D349906C0803523EC5E
:100164009207A105B105A8F3349B12C086B1806142
:1001740086B910926A0084B195B1FB0191838083A2
:1001840080E0089581E0089581E0089581E0089574
:0401940081E0089569
:100198001F920F920FB60F9211242F933F934F93F4
:1001A8005F936F937F938F939F93AF93BF93EF93D7
:1001B800FF93809162009091630001969093630091
:1001C800809362008031974259F410926300109234
:1001D8006200E0916600F0916700309709F0099598
:1001E800FF91EF91BF91AF919F918F917F916F9107
:1001F8005F914F913F912F910F900FBE0F901F90DD
:02020800189547
:10020A001F920F920FB60F9211242F933F934F9381
:10021A005F936F937F938F939F93AF93BF93EF9364
:10022A00FF938091600090916100892B61F0109298
:10023A006A0086B1877F86B984B195B1E091600082
:10024A00F09161000995FF91EF91BF91AF919F9154
:10025A008F917F916F915F914F913F912F910F9065
:08026A000FBE0F901F901895C4
:10027200CF93DF9300D0CDB7DEB71A8219820E94E6
:10028200A2010E94EC010E94BC010E948201BE01F7
:100292006F5F7F4F80E00E94920089819A81A0E087
:1002A200B0E0B695A79597958795B695A79597953A
:0E02B20087950E9417028DE20E94D601E8CFC8
:1002C000A1E21A2EAA1BBB1BFD010DC0AA1FBB1F5A
:1002D000EE1FFF1FA217B307E407F50720F0A21BCC
:1002E000B30BE40BF50B661F771F881F991F1A9439
:1002F00069F760957095809590959B01AC01BD0163
:04030000CF0108958C
:100304008FB58E7F8FBD8FB582608FBD8EB58860AF
:100314008EBD8EB580618EBD8FB580688FBD8FB563
:100324008F7B8FBD8FE19EE497BD86BD8EB58E7F9A
:100334008EBD8EB582608EBD8EB58B7F8EBD0895C9
:1003440087B18F7787B987B1806487B987B18F7D8B
:1003540087B986B18F7D86B986B1846086B986B146
:10036400826086B986B18E7F86B986B1806886B987
:0403740080E0089588
:1003780083B7806483BF83B7886083BF83B7806295
:1003880083BF83B78F7E83BF89B7826089BF83B7F6
:100398008B7F83BF83B7826083BF83B78E7F83BF22
:0403A80080E0089554
:1003AC00853B90F4282F30E0A8EEB3E00E94FD01CD
:1003BC0024EB30E040E050E00E94600129513C4FBA
:0C03CC003BBD2ABD80E0089581E008954B
:1003D8008EEF8ABB81E08BBB8FE587BB81E788BB4B
:1003E80085E984BB88E685BB8FEF81BB12BA80E0C4
:0203F800089566
:1003FA00A29FB001B39FC001A39F700D811D11245C
:0E040A00911DB29F700D811D1124911D08954A
:10041800EC010E941F020E941E02CE010E942002CF
:06042800CE010E941C023F
:06042E008CBF80E0089580
:040434000C94000024
:040438000E945500C9
:02043C00089521
:02043E0008951F
:0204400008951D
:00000001FF
